:10000000280F0020A9320000A5320000A532000010
:1000100000000000000000000000000000000000E0
:10002000000000000000000000000000A5320000F9
:100030000000000000000000A5320000A532000012
:10004000A5320000A53200007D1C0000A532000092
:1000500085160000A5320000A5320000252C000006
:10006000A5320000A5320000A5320000A532000034
:10007000A5320000A5320000A5320000A532000024
:10008000A5320000A5320000A5320000A532000014
:10009000A5320000A5320000A5320000A532000004
:1000A000A5320000A5320000A5320000A5320000F4
:1000B00008B5064B064803331B1A062B00D808BDAB
:1000C000044B002BFBD09847F9E7C046F4360000FC
:1000D000F43600000000000008B50748074B1B1A63
:1000E0009B10DA0FD318591000D108BD044A002A1A
:1000F000FBD09047F9E7C046F4360000F436000024
:100100000000000010B5074C2378002B09D1FFF741
:10011000CFFF054B002B02D0044800E000BF0123B5
:10012000237010BD6401002000000000F4360000C0
:1001300008B5094B002B03D00848094900E000BF6F
:1001400008480368002B03D0074B002B00D09847CA
:10015000FFF7C2FF08BDC04600000000F4360000F3
:1001600068010020F43600000000000010B572B6EF
:10017000BFF35F8F194A002313701948D9B20133B6
:100180001818013800780028F7D0002905D101237C
:100190001370BFF35F8F62B61FE072B6BFF35F8F5D
:1001A000002313704B1EDBB2022B07D9032B0CD19B
:1001B0000C4B042019690143196106E00949042424
:1001C0000869A043086108494B7001231370BFF30D
:1001D0005F8F62B6BFF34F8F30BF10BD5801002054
:1001E0009804002000ED00E00004004013B5184B17
:1001F0001A68110603D41968FD220A401A7001F02A
:100200009DF8144C144A80231B05062163600820C6
:100210001170A36101F0ACF8226A6B461201D20F93
:10022000DA7107331B78002B03D10C4B9B6B9A06BA
:100230000CD58022D2011368591C00D1FEE783F34C
:100240000888074B9A60074B1B68984713BDC04648
:1002500000100040004400415B44004100040040A5
:1002600000ED00E00440000013B5FFF7BFFF184B9E
:1002700001221A70BFF35F8F62B6164B00241A7109
:100280001C705C709C70DC7001F0EDFC6A46124BD7
:10029000147054705B686846DB061B0F9370D47053
:1002A000147101F07BF80D4B802252059A6100F029
:1002B00039F800F03FF800F00BFE094B1B78002BDB
:1002C00003D000F0E5FC0028F7D1FFF74FFFF4E77B
:1002D00058010020980400200040004100440041E3
:1002E0008001002008B500F025F808BD08B500F031
:1002F00029F808BD08B5044B1B78002B03D001F08A
:100300008DFF00F02BF808BD80010020014B01207B
:100310001870704780010020014B00221A7070474E
:1003200080010020024B802252059A617047C0462E
:1003300000440041024B802252055A617047C0467A
:1003400000440041024B802252059A617047C0462A
:10035000004400417047704770477047002804D13F
:100360008022064B52059A6107E0FA239B009842CF
:1003700003D18022014B52055A617047004400416D
:10038000024B1878431E98414000704781010020BD
:10039000044B1A780223002A02D1E3230360131CC2
:1003A000181C704781010020002070470120704711
:1003B00070B5051C0E1C0120E42D17D84B19002424
:1003C000E42B13D8A0B2B0420FD2401980B200F093
:1003D000ABF88022012006499200002300F09CFC2B
:1003E00001340028EED1012000E0002070BDC0469D
:1003F00098020020F8B5051C0E1C0120E42D16D82B
:100400004B190024E42B12D8A7B20020B7420ED219
:10041000802207499200031C00F07EFC002805D0D2
:100420007F19B8B200F06CF80134EDE70120F8BD97
:100430009802002043081B1810B5DBB2094AC40714
:1004400008D5D45C0F2020400C012043D05409096A
:10045000D31805E00F20D154D3180A0A8143114361
:10046000597010BD98020020F7B5214B00915A3306
:100470005D781A782D021543013DAD00ADB2A8425A
:1004800035D32B1CDF339BB2984230D8451BE02379
:100490006D025B00EB1801932C1C8023DB01E61836
:1004A000009B144F002B06D07F1B3919301C4022B3
:1004B00001F044F80BE0F3B2002B02D1301C01F044
:1004C00075F87F1B3919301C402200F0EDFF019BAD
:1004D00040349C42E1D1084B0849E818009B402277
:1004E000002B02D001F02AF801E000F0DDFFF7BD9B
:1004F0000000002098020020C041000058040020A5
:1005000008B502280AD9032805D105496022054803
:1005100003F004F802E00021FFF7A6FF08BDC04683
:10052000980200200000002038B5234C8022051CD2
:100530000021201C920003F033F8281E032836D82F
:1005400002F0E4FE020F0F2F3E22201C1B4902F096
:10055000E5FFFF2355225B00E254194BAA22E25427
:1005600028E000201749FFF765FF01201649FFF733
:1005700061FF164B00245A335D781A782D0215431B
:10058000A3B25819E2B280B2372A03D0691C5918B5
:1005900089B200E00C490134FFF74CFF382CEFD151
:1005A00008E0201C0949602202F0B8FF02E00121A6
:1005B000FFF75AFF38BDC046980200205C360000A5
:1005C000FF010000F80F0000FF0F000000000020F6
:1005D00073B501AC01250026211C1C206570A67096
:1005E000257001F06DF8054B802252055A611B20E1
:1005F000211C2670657001F063F873BD0044004152
:100600000120704708B5031C0120002B01D1FFF722
:10061000B7FE08BD021C08B50120002A02D1081C43
:10062000FFF7B6FE08BD031C0020834201D1012064
:100630004840704708B5031C0120002B01D1FFF78B
:10064000B3FE08BD08B5031C0120002B01D1FFF744
:10065000ADFE08BD002801D1014800E00020704730
:100660009A360000F8B5071C0E1C151C0124FFF774
:1006700071FE002F04D1301C291CFFF799FE041CC9
:10068000FFF769FE201CF8BDF8B5071C0E1C151CF1
:100690000124FFF761FE002F04D1301C291CFFF755
:1006A000A9FE041CFFF759FE201CF8BD002070476E
:1006B000431E9841034BC0B21870034B01221A70BD
:1006C0007047C0469D0400206000002010B5054C16
:1006D0000021201C122202F063FFF02323700A2362
:1006E000E37110BDB001002008B5FFF7EFFF024B2A
:1006F00000221A7308BDC0469C00002008B5054BB7
:1007000000221A70044A01231370044A1370FFF781
:1007100003FE08BD9C01002060000020AC0000200A
:1007200007B5074B022000930121064A1F2301F061
:10073000B9FE002803D10220034901F089FE07BD5C
:10074000B10A0000C80100202107000008B5FFF72A
:10075000E7FF08BD134B70B500241C70124B134A01
:100760001C7001231370124A1370FFF749FF114EDA
:100770003070A04201D1002511E001383070FFF740
:10078000C5FD051EF7D03378A34206D3201C0021F7
:100790000134FFF748FFE4B2F5E7FFF7C1FF281C7B
:1007A00070BDC0469C0100209D010020600000201B
:1007B000AC0000209801002007B5074B8120009372
:1007C0000021064A0D2301F06DFE002803D181208F
:1007D000034901F03DFE07BD4D0700009C000020CD
:1007E000B907000038B5094B094C9A681D1C002A4E
:1007F00006D0237B81207F2B00D8022001F09AFDB8
:1008000064686C60FFF7D8FF38BDC0469C000020CC
:10081000C801002008B5064B1B78002B06D002202B
:1008200001F088FD0220034901F012FE08BDC04618
:100830009D0100201508000008B5064B1B78002B11
:1008400006D0812001F076FD8120034901F000FEF1
:1008500008BDC0469D0100203908000010B50C1CE1
:10086000002807D1FFF740FF034B9A68141B9C60D8
:10087000FFF7B8FF10BDC0469C00002008B5184B1C
:1008800060211A7850B20A4000280FDA0020202A8E
:1008900025D15A78FE2A22D1DA88012A1FD1598817
:1008A00081421CD10F499A81996017E00020202ACB
:1008B00015D15A78FF2A12D1DA8882420FD15B888B
:1008C00083420CD1084B1870084B1870022001F0BD
:1008D0008BFC812001F088FCFFF722FF012008BD7E
:1008E000D0060020980100209D0100209C010020DE
:1008F00038B5051C0C1CFFF7E9FE074B01221A73E3
:10090000064B0022DA701A715A719A71220A9D7090
:100910001A735C7338BDC0469C000020B0010020F3
:1009200008B5E82102208901FFF7E2FF08BD08B5FC
:100930000620A0218140FFF7DBFF08BD08B5042099
:100940000021FFF7D5FF08BD07B50B1C0649021CA7
:1009500000918120012101F0A5FD002803D1FFF7BE
:10096000EDFFFFF73FFF07BD5D08000008B59021D0
:1009700005208901FFF7BCFF08BD000008B5094B41
:100980001B7B594049B2002904DB074B9A680123BD
:10099000824204D2FFF7EAFFFFF724FF0023181C6E
:1009A00008BDC046C80100209C000020F7B5214CBE
:1009B000071C0021201C142202F0F2FD1E4E002F05
:1009C00004D0231CF27D0833082502E0F27C231DAD
:1009D0000425707C3F2101401C2901D03F2907D10B
:1009E0001C2119700A2159700C350521D970EDB2FE
:1009F0002B1C954200D9131CDBB2181C80210193DB
:100A0000FFF7BCFF002813D0707BFFF713FE431ED7
:100A10009841C001002F04D0023D2D022580E070D6
:100A200002E0013D2570A070201C0199FFF78CFFAA
:100A3000F7BDC04684010020C801002038B5051C60
:100A4000164C0CD1607BFFF7F5FD002807D09C21E8
:100A500007208901FFF74CFFFFF7C4FE1CE0104B95
:100A6000627C291CDA70A27C9A70E27C5A70227D2A
:100A70001A700C4BA27D5A70E27D1A7018884B1EBA
:100A800099414002C901FFF779FF002804D0064BC5
:100A900001221D70054B1A7038BDC046C8010020E8
:100AA000AC010020A8010020C40100209C0100200E
:100AB000F8B5002800D0D9E01F2905D16C496D4B4D
:100AC0000A680C1C9A4207D06B4B01221A70FFF780
:100AD000A1FEFFF7B1FEC9E04A7B0F231A40674B26
:100AE0004A731B78934200D2AFE0654B8D689D60DE
:100AF000CB7B1E2B00D1A5E00DD8122B2DD004D816
:100B0000002B67D0032B18D0A5E01A2B5FD01B2B2E
:100B100000D18EE09FE02A2B00D199E006D8252B4A
:100B200064D00120282B00D192E094E02F2B00D13B
:100B300099E001205A2B4AD08DE0CB7C1C1C122B53
:100B400000D91224E4B2201C8021FFF717FF0028EF
:100B500000D18BE04B48211C68E0CB7C1D1C242B72
:100B600000D92425EDB2281C8021FFF707FF0028BB
:100B70007CD0237C990768D1677C002F65D1607B8E
:100B8000FFF760FD404E431E9841C0017070607BCE
:100B9000FFF760FD411C301C1030102202F0BEFC3B
:100BA0003B1C301CC118097CDAB2002905D022296F
:100BB00003D00133102BF5D11A1C102A05D083184D
:100BC000202101321974D2B2F7E7291C2EE0FFF779
:100BD000EDFE4BE0101CFFF715FD022823D0032883
:100BE0001ED000283FD0FFF7A9FE39E00820802161
:100BF000FFF7C4FE002839D0607B244C211CFFF78E
:100C000009FD02280FD003280AD00028EBD1226862
:100C100080239B02636013BA2360201C082105E037
:100C2000FFF785FE1CE0FFF77BFE19E0FFF78CFE67
:100C30001CE0CB7C9D0716D501219943101CFFF7C2
:100C4000F2FC10E0CB7C002B0DD0FFF78FFE07E00D
:100C5000FFF7F4FE0AE0802105208901FFF748FE36
:100C6000FFF7C0FD02E0FFF73FFDF9E7F8BDC04622
:100C7000C8010020555342439D01002098010020E7
:100C80009C000020B001002078000020A00100207E
:100C900010B51B4A00231178181C99422ED0194C0C
:100CA00013702370184B19491878194A194B0028EA
:100CB00005D0487B11681A88FFF7D4FC04E0487B14
:100CC00011681A88FFF7E0FC2378002B02D000237C
:100CD000237012E0022809D0032804D0002808D18C
:100CE000FFF702FD07E0FFF722FE04E0FFF718FE22
:100CF00001E0FFF723FEFFF775FD012010BDC046A0
:100D00009C010020AC000020C4010020C80100208C
:100D1000AC010020A8010020F7B51A4D1E1C2B784D
:100D20000F1C141C002B01D1002029E000232B7084
:100D30000223002800D08123321E00D1124A0092E3
:100D4000181C00213A1C231C01F0ACFB002802D126
:100D500001232B7014E0002E0ED12B78002BFCD039
:100D60000A4B1A78002ADFD1094A1B7891680120C2
:100D70000C1B9460584003E0054B9A68141B9C6060
:100D8000FEBDC04660000020B10600009D040020AA
:100D90009C00002008B5034B58887F23184001F0C1
:100DA00031FC08BDD006002030B5144B1A78002362
:100DB0009A4221D0124B1B681B681A79824201D8D3
:100DC000002319E0DC789D780E4A24022C4313603E
:100DD0001C199C420ED95D78042D08D19D7885425E
:100DE00005D1DD788D4202D11360012304E01D7826
:100DF0005B19EEE71360E3E7181C30BDF401002037
:100E0000EC010020F8010020094B1B681B68DA7810
:100E1000997812020A439B1802788018834205D9F8
:100E20004278042A02D0052AF6D100E0002070475B
:100E3000EC01002038B5051CFFF7B6FF002801D1F2
:100E4000002018E00C4B1C68201CFFF7DDFF041E7F
:100E50000AD06279237912028078E1781A4301F08E
:100E600005FA0028F0D1EBE7044BAD001B685B6886
:100E7000EB581B68984738BDF8010020EC010020B2
:100E800070B50021051CFFF78FFF041E19D00E4B13
:100E9000AA001B685B68D658F3689847011C281C99
:100EA000FFF782FF041E0CD0084B1D68281CFFF7BB
:100EB000ABFF051E03D0807801F0B8F9F6E7736840
:100EC0009847201C70BDC046EC010020F8010020AE
:100ED00008B501F0F3FB08BD38B50C4B00241A78B7
:100EE0001D1CA24205D100232B70094B01221A8040
:100EF00038BD084B1B681B681B79A342F3D9201C23
:100F00000134FFF7BDFFE4B2F3E7C046F40100206F
:100F1000F2010020EC01002010B50B4B00241B78DF
:100F2000A3420FD0094B1B6819680A79A24209D95C
:100F30005B68A200D3581B69002B00D0984701348E
:100F4000E4B2EFE710BDC046F4010020EC01002040
:100F5000F8B5A44C0023A38123616361237858B2C0
:100F6000002803DAE288002A00D19FE160211940BD
:100F700000D051E11F22002800DBA9E0E588002D08
:100F800000D149E1134067D16378062B09D0082BC3
:100F90005DD0002B00D03FE1022D00D03CE1924813
:100FA00092E06088050A022D0CD006D8012D00D0F1
:100FB00032E18E4B1868017840E0032D1FD00F2DD1
:100FC00013D029E1894BC0B219684A7C824200D80B
:100FD00022E15B68C000C058C178837809021943D8
:100FE00001F020FBA26855702AE0804B9868002829
:100FF00000D111E1C1788378090219431EE0C0B223
:10100000032800D908E102F08BF9070004000A0068
:101010004E010F21764A04E0764804210EE0764A1C
:101020001621002375485D00D65C451901336E809A
:10103000DDB28D42F6D349000231017001F0F2FABF
:10104000E388A2899A4200D8CAE0A381C8E0012DB2
:1010500000D0E1E06A4837E0012B25D163780A2B04
:1010600000D0D9E0012D00D0D6E0654B1B78002BD5
:1010700000D1D1E0634B26791F683A681379B342F7
:1010800000D8C9E0301CFFF78FFE051E00D1C3E079
:101090007B68B600F358DB6898475B4B01211870FA
:1010A000181C01F0BFFA99E0022B00D0B4E063787D
:1010B000002B00D0B0E0022D00D0ADE0207901F08F
:1010C00031F9524B1880181C291C01F0ABFA87E04B
:1010D00013404CD160780138082800D99CE002F018
:1010E00015F90C9B9B9B059B9B9B1A00E388002B8F
:1010F00000D091E0464B236172E0E388002B00D0E2
:101100008AE06388012B00D086E0374B02211A88E1
:101110008A431A8064E0E588002D00D07CE001F06D
:1011200079FA002800D177E0304EA27831684B7C04
:101130009A4271DCFFF7D0FEA378314A1370002B7E
:101140004ED034492F4A5B187168DB00CB1813600E
:10115000161C33681B681B79AB4241D9281C00213F
:10116000FFF768FE002857D00135EDB2F1E7012BFB
:1011700015D163780B2B4FD1E388002B4CD1204B3A
:101180001B78002B48D025796688281CFFF778FE4D
:10119000002841D0F1B2281CFFF74CFE1DE0022BC5
:1011A0003AD16378012B02D0032B0AD034E0E388D4
:1011B000002B31D16388002B2ED1207901F02EF93C
:1011C0000BE0E388002B27D16388002B24D1207902
:1011D00001F00AF8207901F0ADF8051C002D1BD0B4
:1011E000012064E0D0060020F2010020B8000020B9
:1011F0001301002054010020FC00002024010020E5
:10120000F4010020EC010020E8010020F0010020A2
:10121000950D0000FFFFFF1F22781F231340012BB5
:101220001FD1234B1B78002B1BD0224B25791E6826
:1012300032681379AB4214D9281C0021FFF7B4FDA2
:1012400000280ED07368AA00D658F3689847011C8E
:10125000281CFFF7A9FD002803D0B3689847002891
:10126000BED122781F231340022B1FD1104B002424
:101270001B78002B1AD00F4B1B6819680A79A24201
:1012800014D95B68A200D558E9688847011C201C66
:10129000FFF78AFD002809D0AB68984700289FD146
:1012A0000134E4B2E7E70C21034ABAE60020F8BDB6
:1012B000F4010020EC010020AF3600000A4B1A6850
:1012C000002A0CD1EFF310800021084A884205D192
:1012D00072B6BFF35F8F06480170012111701A6862
:1012E00001321A607047C046FC0100200002002055
:1012F00058010020084B1A68013A1A601B68002B3D
:1013000009D1064B1B78002B05D0054B01221A7022
:10131000BFF35F8F62B67047FC010020000200201F
:1013200058010020002806D0034B002258609A6024
:101330001A68D103FCD5704710E000E008B5002022
:1013400000F0A4FBFA21890001F0F4FF054BFA211B
:101350001860890001F0EEFF034B05221860034B73
:101360001A6008BD600100205C01002010E000E070
:1013700010B5041C002C05D0034B013C1868FFF786
:10138000D1FFF7E710BDC04660010020024B58694D
:10139000012318407047C0460040004138B51D4B3E
:1013A0000421DA691C4C0A43DA61A269202392B253
:1013B000FF3313432383051CFFF7E8FF031C0520BD
:1013C000002B25D0EA786B782978DB0192041A4348
:1013D000C02309029B000B401343AA781E21520030
:1013E0000A4029791343C022090492020A40134398
:1013F0006360A268094B5203520F08219140198083
:10140000A2685A806A781A71A069C005C00F0001ED
:1014100038BDC046000400400040004102020020E8
:10142000F8B51F4B041C5A881B880E1C5A431823FE
:10143000914233D81B4D80236F68DB023B436B60C6
:10144000AA69202392B2FF3313432B83FFF79EFF39
:101450000523002822D0062C06D89C420BD2022C51
:101460000DD0042C19D10AE0402C16D3412C06D9FA
:10147000452C07D911E0AA691023D1050ED4B6086E
:101480007600EE61A5231B021C432C80FFF77EFF34
:101490000028FBD06F60002300E01723181CF8BD64
:1014A0000202002000400041F8B5214B0E1C151C23
:1014B00059881A88041C51431823884235D8511E74
:1014C000014232D1172395422FD8FFF75FFF052342
:1014D00000282AD0174F184B3B80FFF757FF0028F2
:1014E000FBD0BA69202392B2FF33134360083B83D9
:1014F000400000239AB2AA420ED29AB26F1EB15C8B
:10150000BA4201DB0A1C03E0B218527812020A4305
:1015100019180A800233EDE700233F2D05D81A1C65
:101520000420211CFFF77CFF031C181CF8BDC046DB
:10153000020200200040004144A5FFFFF8B5194B0E
:101540000E1C19885B88141C4B43051C18229842FA
:1015500025D84F1E074022D117228C421FD8FFF7F3
:1015600015FF052200281AD00F4B20229969FF325F
:1015700089B20A436D081A836D003B1C9AB2A242DD
:101580000CD25A191188601E89B29AB2B1548242A3
:1015900002DAB218090A51700233EFE70022101C78
:1015A000F8BDC046020200200040004138B5104B93
:1015B000041C1D885A8818236A43904215D8AD0030
:1015C000013D054011D1FFF7E1FE052300280CD0B5
:1015D000084B20229969FF3289B20A431A83A40872
:1015E000054A6400DC611A802B1C181C38BDC046FB
:1015F000020200200040004102A5FFFF024B1868D4
:101600000004C00F7047C0460018004008B5054BE5
:1016100002211A68D2B20A431A70FFF7EFFF0028BE
:10162000FBD108BD0018004007B5124B40219A6954
:1016300005200A439A6101A900230B7000F09CFA6F
:10164000052000F05DFA0C4B01211A68D2B20A4362
:101650001A70FFF7D3FF0028FBD1084B0022C318F4
:1016600004301A604028F8D1054B10221A60FFF7A9
:10167000CDFF07BD0004004000180040A00400207A
:1016800000E100E010B50B4C0023237023780F2BF2
:101690000FD8094A012110699940084206D011610A
:1016A000064A9B009B58002B00D0984723780133B3
:1016B000EBE710BDE004002000180040A00400206B
:1016C00007B5802201AB1A700A785A704A789A706E
:1016D0008A78191CDA7000F0B1FA07BD10B50C4B0E
:1016E00002211A680A431A60196880229143094A44
:1016F00089B29184101CC168064ACC06FBD5996852
:101700000020D162596891621B689BB2938410BD1E
:10171000080200200008004010B5082832D801F067
:10172000F5FD0831310505130B1629008020000254
:101730002BE0164B186928E0154B186A154B8005ED
:10174000800FC340181C20E0104B58691DE00F4C5F
:1017500002232068184018D00D4BDB68DA06FBD551
:1017600023685A0710D5002000F012FAA3689BB234
:1017700058430AE0064B00201B6D5A0705D5034B62
:10178000D86802E0002000E0034810BD08020020F5
:101790000008004000127A00006CDC0270B50D4BAE
:1017A00045781E6A817804780122402086431540DE
:1017B000AD01301C0A402843D10180229043021C15
:1017C0000A43054803212140090202400A431A62E4
:1017D00070BDC04600080040FFFCFFFF30B5027A34
:1017E000438992069B059B0D120C1A43124B81886C
:1017F0005A604288C4791143827922430A4341786E
:10180000C9010A431A600278042A0BD1047BC189FA
:10181000058A0A48A40609042C4301402143996023
:10182000196806E0202A06D1028A9A601968842283
:10183000D2000A431A6030BD080200200000FF03F6
:1018400008B508282CD801F061FD122B2B100B19BC
:1018500005202300134B02211A6A0A431A6204E08E
:10186000104B02219A690A439A61002019E00D4B3E
:1018700002211A6992B20A431A82F6E7094B022141
:101880005A6992B20A439A82EFE7FFF727FF08E00E
:10189000044B5A6C0223D2B21A43034B1A70E4E78A
:1018A000172008BD000800404408004010B5C223BE
:1018B0002D4CDB00A3602D4B1E215A688AB08A4351
:1018C00004210A435A6005A80023438083714370B2
:1018D000072303733F232022C381254B02701A681C
:1018E000920E3F2A00D11F22224B23491B689B05E1
:1018F0009B0D8B4200D1214B43810823C371802370
:101900005B0083801E4B02720382FFF767FF01A812
:1019100000230122437082700370FFF73FFF06200F
:10192000FFF78EFF00F038F8FFF7D8FEE2680E4BA5
:10193000D106FBD59A8C80210A439A84114B00244E
:101940001C7202A95C7207229C72201C01234B604E
:101950004C704C720A700B7200F02EF8201C00F0D4
:1019600079F80AB010BDC0460008004000400041B0
:101970002460800028608000FF030000FF01000059
:1019800080BBFFFF00040040024B18680004C00F3A
:101990007047C046000C0040054B08219A690A4375
:1019A0009A61044B01221A701A68D107FCD470475F
:1019B00000040040000C004070B50C784B78240205
:1019C000051C061C0443002B02D08023DB021C43B1
:1019D0004B7A002B02D080231B031C434B68012B46
:1019E00013D95E1E1E400222002E09D19A4202D255
:1019F00001365200FAE7360280232E435B0303E0F0
:101A00001E0280232E439B021C430B7A002B02D024
:101A100080239B031C43FFF7B7FF0028FBD1FFF790
:101A20004DFC0A4B1D70FFF7AFFF0028FBD1084D9E
:101A3000AE60FFF7A9FF0028FBD16A6880235B0234
:101A400013401C436C60FFF755FC70BD080C004050
:101A5000000C004010B5041CFFF796FF0028FBD1D6
:101A6000FFF72CFC074B1C70FFF78EFF0028FBD103
:101A7000054B8022596852020A435A60FFF73AFC2C
:101A800010BDC046040C0040000C0040F8B5071C17
:101A9000FFF77AFF0028FBD1FFF710FC154B1F70F2
:101AA0001E1CFFF771FF0028FBD1134D6868C004AE
:101AB000C00EFFF731FE37706E68104BF602041C43
:101AC000F60F1F70FFF760FF0028FBD1AD682D02F5
:101AD0002D0CFFF70FFC002E07D1012D07D9201C7C
:101AE000291C01F027FC041C01E00135EC40201CFE
:101AF000F8BDC046040C0040000C0040080C00403B
:101B000010B5041CFFF7DAFB054B80221C70054B57
:101B1000D2011968090C0A435A80FFF7EBFB10BD8C
:101B2000020C0040000C004038B5041CFFF7C6FB57
:101B30000D4B0E4A1C700E4B0E4C1968588809014B
:101B4000104058801868090F000C20405880101C65
:101B50001C68074A6500FBD45388090203400B4305
:101B60005380FFF7C7FB38BD020C0040FFF0FFFFBA
:101B7000000C0040FFBFFFFF10B50C7824020443A7
:101B8000FFF7D2FF014BA4B25C8010BD000C0040F7
:101B900010B5041CFFF792FB054B1C70054B1C682D
:101BA000FFF7A8FB2401240F201CFFF76FFF10BDD7
:101BB000020C0040000C004030B5D47800239C4259
:101BC0001BD11478802C03D0802324065B0223438E
:101BD00054780225AC4309D19478002C02D180249A
:101BE000A40201E0C024E402234341605478013C94
:101BF000E4B2012C01D8104C2340A0248DB2E4059E
:101C00002C431C438462D0240D0C24062C431C431B
:101C10008462D478002C0DD15C0305D59378012B18
:101C200001D1816100E041615378013BDBB2012BBE
:101C300000D8816030BDC046FFFFFBFF08B5031C24
:101C40000A1C4009D90903D10549C001401800E028
:101C500000201F210B4001219940FFF7ADFF08BD77
:101C600000440041704708B5FFF720FEFEF7B0FCC6
:101C7000FFF7F8FFFFF7D8FC08BD000008B5044BDC
:101C800001229A71034B1B68002B00D0984708BDB6
:101C900000100040E4040020EFF3108072B6BFF3A0
:101CA0005F8F034B00221A70434258417047C04671
:101CB000580100200F2303405B00C00918180238A8
:101CC00014235843014B18187047C04624020020C3
:101CD000F0B58E7985B073B20D1C0F27301C002B28
:101CE00046DAFFF7E7FF6D88C368028AED1883685C
:101CF00037400197041C0292C560877C9D4221D029
:101D00005E1B4B4AB6B2964206D9101C029901F0EE
:101D1000B5FB474B5E1AB6B20023BA0706D5301C96
:101D2000029901F04BFB8BB25A4253415A00A37CFB
:101D300002218B4313436268A37452193D480199F1
:101D4000331C0AE0B807C00F0AD0022362689F4321
:101D500038480199A7745219002300F0F3FE64E09B
:101D600001239F432368A774002B5ED0291C5AE0EF
:101D7000FFF7A0FF038A37400193837C0297041C7E
:101D80002F885A0710D5C268436801999B1880684C
:101D9000039301F013FB0A1C0299274B01398901B7
:101DA000C918039801F0BAFBE368FA18A368E26067
:101DB0009A4200D9E360AA88BA422BD1E5689D42D5
:101DC00028D05E1B1A4FB6B2BE4206D9381C019904
:101DD00001F054FB7F1ABBB206E0301C019901F000
:101DE000EDFA8BB2F61AB3B2019A124893420BD2B3
:101DF000A37C04221343029AA374013A0E4B92016E
:101E0000D2180299019B02E062680299521900F00F
:101E1000BFFE0AE0A37C01229343A3742368002B36
:101E200003D0E1680020321C984705B0F0BDC046E1
:101E3000FF1F000068050020E804002010B5064CD4
:101E4000064B0522201C80211A7000F03DFE201C4C
:101E5000002100F046FE10BD68050020770200203A
:101E600037B5041CFFF738F8226801AD8023937260
:101E7000281C00F027FD0323291C201C6B7000F098
:101E800029FD201C174900F0A7FE201C002102227A
:101E9000154B00F063FC00210A1C201C134B00F0C2
:101EA0005DFC134B201C0021012200F057FC201C7C
:101EB0000021022200F07AFC00210A1C201C00F004
:101EC00075FC201C0021012200F070FC2368094AE7
:101ED00019890A408021C9000A431A81064B002251
:101EE0001A7037BDE8060020312000005923000099
:101EF000311F0000FFF3FFFF7702002010B5084CF0
:101F0000084B0322201C08491A7000F065FE074B9D
:101F100000219A68201C0B1C00F014FE10BDC04666
:101F20006805002077020020E8060020D006002087
:101F300008B589790C4B4AB2002A08DA1B78012BC4
:101F400002D1FFF7DBFF0DE0042B0BD107E01A787D
:101F5000022A02D104221A7004E0032A02D10348A3
:101F600000F0B2FD08BDC0467702002068050020E1
:101F7000F8B51D4D1D4E2B88B4891D4FE41AA4B22F
:101F8000002C1BD11B4A11885B189BB21380F2886E
:101F90009A4203D0184B1B78002B07D0174B042212
:101FA000381C17491A7000F017FE1CE07369002BEB
:101FB0000BD09847002808D02C80B4893F2C04D936
:101FC0000D4B00221A70402402E00B4B01221A70C4
:101FD0002B88B268381CD2180021231C00F0B2FDF7
:101FE0002B88E4182C80F8BD74020020D006002055
:101FF00068050020200200207602002077020020E1
:10200000E806002008B5FEF787FFFEF773F908BD64
:10201000064B5A6A910605D4D968D0220A40D02AC4
:10202000FAD102E0DA68D106FCD57047000800401A
:1020300070B5284E0C1C3378002B06D0264B1B693C
:10204000002B00D09847002333702388082B02D040
:10205000FFF7F4FE3CE0214C1F4D2378A2782B7053
:1020600063786B70E3781B02D3186B8063792279F5
:102070001B02D318AB80E379A2791B02D318EB8043
:10208000FEF766FF0028E3D02B787F2B0ED9144B88
:1020900000211980134B221C19800223337012482F
:1020A000402300F075FDFFF763FF11E0EB88002B84
:1020B00002D1FFF723FF0BE0094B00211980094BE8
:1020C0000948198001233370221C402300F060FD71
:1020D00070BDC04677020020D0060020E806002030
:1020E000200200207402002068050020002805D08E
:1020F000034B01221A70BFF35F8F62B67047C04670
:1021000058010020F7B501AE041C1149301C04220F
:1021100001F004FA0F4B1D78A54217D0002C08D00F
:10212000375DFFF7B9FD0C4BDA5D0132DA55FFF789
:10213000DDFF002D08D0755DFFF7AEFD064B5A5D43
:10214000013A5A55FFF7D2FF024B1C70F7BDC0464B
:10215000BC360000780200209804002010B5084C1E
:102160000621201C00F0ECFA201C042100F0E8FA03
:102170000221201C00F0D4FA0220FFF7C3FF10BD9B
:102180006805002010B5FFF743FF0C4C0221201C0E
:1021900000F0D6FA201C042100F0C2FA084A201CE4
:1021A000062100F0ADFA0621201C00F0B9FA032048
:1021B000FFF7A8FFFEF79AF810BDC046680500209B
:1021C0005D21000010B5074C0421201C00F0B8FA76
:1021D0000221201C00F0A4FA0120FFF793FFFEF774
:1021E00081F810BD6805002038B5041C211C0A4880
:1021F00000F045FC201CFFF75DFD827C031CD1072D
:1022000008D501201D6882439A74002D02D0D96838
:10221000221CA84738BDC04668050020024B1B6839
:1022200018698004400D704768050020F7B501ADBE
:10223000041C281C00F046FB201CFFF7D5FF0A4FAA
:102240000026291C381CEE702C7000F043FB0F2177
:10225000321C2140381C00F095FA381C321C211C1D
:1022600000F0EAFAF7BDC04668050020F7B501ACFA
:10227000061C201C0F1C151C00F024FB26700023DC
:10228000082D1DD90123102D1AD90223202D17D96D
:102290000323402D14D90423802D11D980235B0002
:1022A0009D4201D805230BE080239B009D4201D86D
:1022B000062305E0184B9D4201D900202BE007239F
:1022C000301C6370FFF7F6FC0323391C05821940AC
:1022D000012901D1022304E0022902D00329ECD113
:1022E00004230E4D211C281CE37000F0F3FA041E99
:1022F000E3D10F210A4B3140221C281C00F02EFA9A
:10230000311C221C281C00F051FA281C311C01220F
:1023100000F04CFA0120FEBDFF030000680500201C
:10232000D11C000008B5011C014800F0BEFB08BD2F
:10233000680500200F2310B50340041C0020022B69
:1023400007D80448211C00F0BFFB201CFFF74CFFFE
:10235000012010BD68050020F8B52A4E3378012B06
:1023600043D1294A294C0D881788A38979198B42B2
:1023700001DADD1BADB2A2682549D0192A1C01F093
:10238000CDF8EF19204ABBB21380214F402D05D163
:10239000204DE1882A88D218914209DCA381636923
:1023A000002B02D0984700280BD0FFF7A7FD28E0AC
:1023B000A2899A4212D16069002802D08047002881
:1023C00004D105233370FFF7B5FF1AE00E4B1A88CE
:1023D0002B88D3180C4A2B800023138000213A1C31
:1023E00040230D4800F0D4FB0BE0022B02D1FFF795
:1023F000BFFD06E0054B1B69002B00D0984700236A
:102400003370F8BD7702002074020020D00600204F
:10241000E806002020020020680500200F2370B588
:102420000340061C0024022B0ED8FFF743FC311C8E
:10243000051C064800F055FBAB7C0124DA0703D5E8
:10244000A343AB742B689847201C70BD680500201F
:10245000F7B50F23051C01910340022B01D900247D
:102460001BE0FFF727FC837C061CDA07F7D40C4F30
:10247000291C381C00F019FB041E06D0B37C012275
:102480001343B374019B336007E0381C291C00F030
:10249000E5FA041EE3D0019A9047201CFEBDC04619
:1024A00068050020F0B51E1C0F2385B00340071CF3
:1024B000029103920193022B01D9002597E0FFF7C7
:1024C00031FF051EF9D1381CFFF7F4FB041CFFF7A0
:1024D000E3FBA27CD10702D5FFF708FE87E00123CA
:1024E0001A43A274002804D0424A1370BFF35F8FCE
:1024F00062B60023E3600A9B039A0298A17C2360E2
:102500000123626018400222984091430143042055
:102510008143A17479B2A660002930DA002E1AD066
:10252000354DB6B2AE4205D9218A281C00F0A6FF6F
:102530006E1AB6B202990023994206D0218A301C45
:1025400000F03CFF8BB25A4253415A00A37C022157
:102550008B43134304E00299002909D0A37C9343E1
:10256000A3740199039A331C244800F0EBFA3BE072
:10257000A27C9A43A2740A9A002A08D10CE0002E89
:102580000CD1A27C0A999A43A274002904D000209D
:10259000011C3A1C0A9B9847012528E0164FB6B249
:1025A000258ABE4206D9381C291C00F067FF7F1A15
:1025B000BBB206E0301C291C00F000FF8BB2F61AFB
:1025C000B3B20E48AB420BD2A37C04221343019A50
:1025D000A374013A0A4B9201D21801992B1C01E015
:1025E0000199039A00F0D4FA45424541EDB2281C06
:1025F00005B0F0BD58010020FF1F00006805002055
:10260000E8040020024B80221B6810439872704738
:1026100068050020024B1B6898684002400E704716
:1026200068050020014B986099817047D006002012
:1026300038B50320FFF766FD1A4C01252368201CDE
:102640009A68042192B2AA431A81174A00F058F8F6
:10265000201C0021154A00F053F8291C201C144AA4
:1026600000F04EF8134A201C022100F049F8201C0B
:10267000042100F055F8201C002100F051F8291C1D
:10268000201C00F04DF8201C022100F049F80A4AF5
:10269000201C062100F034F8201C062100F040F830
:1026A00038BDC04668050020C52100000520000097
:1026B000611E0000852100005D21000073B5FFF759
:1026C000EBFA01AC061C201C00F006FD0A4D0023AD
:1026D0000A49221C281CA37000F006FD281C00F0EB
:1026E00093FAFFF795FC0120FFF70CFDFFF7A0FF21
:1026F000301CFFF7FBFC73BD680500200050004153
:102700000B1C2E339B001A50044AAA235B0049007D
:10271000895AC25A0A43C25200207047C03600008C
:10272000064B49000268CB5A9383AB225200815A70
:10273000194381520268002013837047C03600009D
:10274000054BAB2252004900CB5A815A9943815222
:102750000268002093827047C036000010B58C00DC
:10276000A4183434A4000419411863605931044B8F
:10277000FF3108789B5C03430B70002010BDC046FE
:10278000CE36000010B58C00A418031C34345B183E
:10279000A40004190449002059336060FF33895CA8
:1027A0001A788A431A7010BDCE36000070B50F2318
:1027B0000B40C41861341F4DFF342678AD5C35439F
:1027C0002570002A0ED10268002B02D1FF320323AC
:1027D0000FE05B01D31849B2FF330222002926DB48
:1027E000012224E0012A0FD10268002B03D1FF321D
:1027F0000C2393721CE05B01D31849B2FF3308220B
:10280000002914DB042212E0022A05D102685B01D0
:10281000D318FF3310220AE0032A09D102685B01B2
:10282000D31849B2FF334022002900DB20229A72DC
:10283000002070BDCE36000070B50F230B40C418C9
:102840001F4D6134FF34AE5C2578B5432570002AF6
:102850000ED10268002B02D1FF3203230FE05B018F
:10286000D31849B2FF330222002926DB012224E0DB
:10287000012A0FD10268002B03D1FF320C235372BF
:102880001CE05B01D31849B2FF330822002914DB96
:10289000042212E0022A05D102685B01D318FF333B
:1028A00010220AE0032A09D102685B01D31849B259
:1028B000FF334022002900DB20225A72002070BD25
:1028C000CE36000000230370437083700123C37071
:1028D00070470000F0B5021C0D78C8780F232B401C
:1028E000ED09042800D998E0146800F00FFD0308F2
:1028F000495D7A0008335B010020E054A9E05D01E6
:102900006419FF3466781C20770700D0A1E067784F
:102910007026374200D09CE01120607014680833A4
:102920005B01E018402444711268D31880221A71A8
:102930008A78484B002A08D05A195468802000062B
:10294000044354605469204307E05A19506840001A
:102950004008506050694000400850615D194C7853
:10296000686807223C4B14401840240720436860E5
:1029700049780A40696912070B4013436B6162E0B2
:1029800058012418FF34002D07D0677870261C20CA
:1029900037425ED16078202612E066781C207707E7
:1029A00057D1607802262FE058012418FF34002DFB
:1029B00010D0677870261C2037424AD160783026C4
:1029C0003043607010681A1C08325201821880204F
:1029D000107122E066781C2077073AD160780326D0
:1029E00012E058012418FF34002D07D067787026B4
:1029F0001C2037422DD160784026E1E766781C2004
:102A0000770726D1607804263043607010681A1C5E
:102A1000083252018218402050715B005D190D4B45
:102A200048782D015B19072210405C680A4A0007AC
:102A3000224002435A608878002806D059688022D4
:102A400012060A435A60002003E05A6852005208F6
:102A50005A60F0BD28070020FFFFFF8F0F220A40B9
:102A600003680832520149B29858002901DA400639
:102A700000E04007400F431E9841C0B270470F234B
:102A80000B40026808335B0149B2D218002905DA0D
:102A9000802111710268D318022204E04021517193
:102AA0000268D3180122DA7170470F220A400368C6
:102AB000083252019B1849B25868002901DA800295
:102AC00000E0C002C00F70470F220A4003680832BE
:102AD000520149B29B182022002900DB10225A71B2
:102AE000704730B50F220A404CB201685301C91833
:102AF000FF31CD79002C11DA2024254220D04C71F1
:102B00000168CB18FF331C7A40210C4218D019728F
:102B10000368083252019A18022310E0102425425B
:102B20000ED04C710168CB18FF331C7A20210C4267
:102B300006D019720368083252019A1801231371E2
:102B400030BD000070B50D1C046808356D012E59AC
:102B50001C247606760F14D00B4C490161180A61CB
:102B60000C1C0A4A49690A4062619A046369920C22
:102B70009B0B9B0313436361036800245D1980234F
:102B80006B71201C70BDC04628070020FF3F00F07D
:102B900070B50D1C046808356D012E591C2476078C
:102BA00013D00B4C49010A5161184C689A04094B27
:102BB0001209234013434B604B6800249B0B9B037B
:102BC0004B6003685D1940232B71201C70BDC0460B
:102BD00028070020FF3F00F0094B0A4A1960596896
:102BE0000A40802189020A435A605A68920B920374
:102BF0005A6003684022FF3300205A717047C04674
:102C000028070020FF3F00F0036802211A68D2B2B3
:102C10000A431A70026813681B021B0E022BFAD0BB
:102C200070470000F0B5D04E85B0346825682B6839
:102C30001B06DB0F00D13FE1286A80B200F02AFCBE
:102C4000071E1F2F00D9BDE0021C08325201AD182B
:102C50006D6803202D0E054242D0C448012103684F
:102C6000B9408B430360216803238818E119C371BD
:102C7000A83189790120014232D0BD4B1F702168F3
:102C80005058BC497A0180078A18800F5168012882
:102C90000BD18904890C598051680901890C9980EC
:102CA00053689B0B9B03536013E00901890C88B2A6
:102CB000029059805168B0488904890C9980516804
:102CC000084050600298002803D152689204920C88
:102CD0005A80BB1C1B01E3185B68201CA449984761
:102CE00004231D420CD0A14A01211068B940884339
:102CF0001060326811683A1C083252018A18D37188
:102D000008231D421ED0994A01211068B94088430A
:102D100010603068FA18016852018A18D371C3191B
:102D2000A8339B799A070DD5924A91497B01D31814
:102D30000F7008335B68DB02DB0E4B703B01C3187E
:102D40009B6A984710231D421FD0884A01211068B2
:102D5000B9408843106030683A1C0168083252015B
:102D60008A18D371C319A8339B795A070DD5804BA4
:102D700080497A011F708A18526800211201920C52
:102D80005A803B01C318DB6A984720231D4200D1BB
:102D90009BE1764A01211568B94030688D43156082
:102DA0003A1C066808325201B218D371C319A8330D
:102DB0009B79190700D488E16D490F703F01C7194D
:102DC0003B6B81E1EF690423BFB21F4208D0AB83A4
:102DD000231CA5331B78DA0702D56368201C9847AB
:102DE00008231F420CD0614A306800211160056839
:102DF000AB83031CA5331B78990701D583689847DB
:102E000040231F4209D0306802689383031CA53316
:102E10001B78DD0601D54369984720231F4209D05E
:102E2000306801688B83031CA5331B781A0701D512
:102E30000369984710231F4209D030680568AB83A7
:102E4000031CA5331B78590701D5C3689847802315
:102E50001F420CD0454A30680021116002689383FC
:102E6000031CA5331B789D0601D5836998478023F1
:102E70005B001F420CD03D4A0021306811600168A0
:102E80008B83031CA5331B785A0601D5C369984769
:102E900080239B001F4200D117E1344A3068002193
:102EA00011600568AB83031CA5331B787F2B00D80A
:102EB0000BE1036A984708E12A6A92B20292002A5B
:102EC0004BD1AB23ED695B00AA22E35A5200ADB2AD
:102ED000A45A2B40029F1C40284B7A00D35A1D4213
:102EE00002D03268126893831C420FD02449062F07
:102EF00006D1204B9A68802312095B0013400B60B7
:102F00003B1C30682E339B001B5898470137072F16
:102F1000E2D1DAE01F1C0837B020009779014000A9
:102F2000E7183E1859374919FF3730783F788C46F3
:102F300049680190090E384060270840394221D184
:102F40001027394239D10C2739424AD18E0700D097
:102F50008DE00133082B00D1B7E002990126194119
:102F6000DAB23142F5D0D5E7940200208802002081
:102F70008002002028070020FF3F00F0C03600003C
:102F80007C02002059016D18FF352E7A40210E4237
:102F900004D02972802149420A4304E02E7A20217C
:102FA0000E4202D029724A498A716022104200D131
:102FB0008BE01B01E318E03357E06146CF713278B4
:102FC0003A4200D181E043495A018A1852681B01F4
:102FD00092043F49E318920CDC330A801B68201CE2
:102FE00072E059016D18FF352E7A08273E4220D035
:102FF0002F72384D69188F6918256D18BE0305D5D5
:10300000896902270902090EB943A9708021494242
:103010000A432F49009F8A7121687E018E197268C8
:10302000950152D40C2210424FD01B01E318D83323
:103030001BE02E7A04273E42F4D02F72254D6918EA
:103040008F6808256D18BE0305D589680227090217
:10305000090EB943A9701E49009F8A7121687E013B
:103060008E197268D501DDD52FE01B682AE05E015C
:10307000AD19FF352F7A02210F420CD0297280251D
:1030800013496D422A438A71124A96197269920451
:10309000920C4A8010E0297A012739420CD00C4961
:1030A0002F728A710B4A961972689204920C0A80E8
:1030B00072681201920C8A80810706D00D331B01C1
:1030C000E3185B680249201C984705B0F0BDC04674
:1030D0008C02002028070020002201230270437088
:1030E0008270C37070470000F0B585B00192654AE8
:1030F00000231360644A051C1060644A29600C1C9C
:10310000D169202003AE01430120D1610627B070B0
:10311000311C18207370F3703770FEF78FFD192083
:10312000311C3770FEF78AFD01996A468B78381C8E
:1031300002A91372FEF720FD381CFEF7E1FC23788C
:103140000120034323702368D903FCD450490B6842
:103150005A0B1F231A409A4200D105221A409001AF
:10316000268D4C4A3240024322850868820C134067
:103170001F2B00D11D23208D1F221340904303439A
:1031800023850B680722DB0D1340934200D10323F4
:103190001340218D1A03404B40480B4013432385B5
:1031A00001997F230A782178D2010B401343019AB9
:1031B0002370517801231940237804228900934316
:1031C0000B43019923706062CB78012B04D12B68EB
:1031D0000C211A898A4306E0002B05D12B680C24A8
:1031E0001989A1430A431A8180220021520000F06C
:1031F000D7F90023E918002204334A60202BF9D1C3
:10320000A918002310324B628B62CB620B63802AB9
:10321000F6D12A1CA43213705370E918081C00223E
:10322000A630AE31013302700A70082BF5D1131CA1
:10323000E918B831002204330A601C2BF8D1A91810
:10324000081C0023D430E0311032036043608360F7
:103250000B60802AF3D1AA225200AB52AB2252005B
:10326000AB52AC20EA184000111861320020FF3246
:10327000013308701070082BF3D1094B80221A60BB
:1032800005B0F0BD88020020940200200004004038
:10329000246080003FF8FFFFFF8FFFFF280700201A
:1032A00000E100E0FEE700001148124910B5884235
:1032B00001D0002301E0104B07E0104CCA18A242D5
:1032C000F9D2C45804331460F7E70D4A191D043BC2
:1032D000934203D200221A600B1CF6E7094A0A4BFC
:1032E0007F218A439A6000F0F5F8FCF7BDFFFEE706
:1032F000F436000000000020680100206401002076
:10330000280800200000000000ED00E002B4714633
:1033100049084900095C49008E4402BC7047C04618
:1033200003B47146490840004900095A49008E44D7
:1033300003BC7047002934D00123002210B4884216
:103340002CD301242407A14204D2814202D20901D4
:103350001B01F8E7E400A14204D2814202D24900F5
:103360005B00F8E7884201D3401A1A434C08A04298
:1033700002D3001B5C0822438C08A04202D3001B2E
:103380009C082243CC08A04202D3001BDC08224345
:10339000002803D01B0901D00909E3E7101C10BC69
:1033A0007047002801D00020C04307B4024802A1A2
:1033B0004018029003BDC046D90000000029F0D09B
:1033C00003B5FFF7B9FF0EBC4243891A1847C04640
:1033D000002941D010B4041C4C40A4460123002213
:1033E000002900D54942002800D5404288422CD30C
:1033F00001242407A14204D2814202D209011B0107
:10340000F8E7E400A14204D2814202D249005B0005
:10341000F8E7884201D3401A1A434C08A04202D36D
:10342000001B5C0822438C08A04202D3001B9C08AE
:103430002243CC08A04202D3001BDC082243002810
:1034400003D01B0901D00909E3E7101C6446002CD6
:1034500000D5404210BC7047002806D003DB002096
:10346000C043400801E08020000607B4024802A1E2
:103470004018029003BDC046190000000029EBD09F
:1034800003B5FFF7A7FF0EBC4243891A1847C04691
:103490007047C046414208401C2101231B0498424A
:1034A00001D3000C10391B0A984201D3000A0839D5
:1034B0001B09984201D30009043902A2105C401A8A
:1034C0007047C0461B1C1D1D1E1E1E1E1F1F1F1FDA
:1034D0001F1F1F1F70B50D4E0D4D0024AD1BAD10ED
:1034E00005D0A300F35801349847A542F9D100F064
:1034F000F1F8084E084D0024AD1BAD1005D0A30017
:10350000F35801349847A542F9D170BDE036000068
:10351000E0360000E0360000E4360000F0B50F2A87
:1035200035D9031C0B439C0735D1161C103E3609B8
:103530003501451910350C1C031C27681F6067688E
:103540005F60A7689F60E7681034DF601033AB42AC
:10355000F3D1731C1B01C518C9180F231340032B8B
:103560001BD91C1FA4080134A4000023CE58EE5020
:103570000433A342FAD1ED18C91803231A4005D029
:103580000023CC5CEC5401339342FAD1F0BD051C0E
:10359000002AF5D1FAE7051CF2E71A1CF8E7C04645
:1035A000F0B54F464646C0B483B0830752D0541E90
:1035B000002A4AD0CEB2031C032503E0621E002C71
:1035C00043D0141C01335A1E16702B42F6D1032C23
:1035D00033D9FF250D402A0215432A0415430F2C29
:1035E0001AD9271C103F3F09B9463F01B84610279A
:1035F000FF18BC4646461A1C664415605560956027
:10360000D5601032B242F8D14F4601373F010F2248
:10361000DB191440032C10D9271F1E1DBF0801966B
:10362000BE00B446019E1A1C664420C2B242FCD1C0
:103630000137BF000322DB191440002C05D0C9B2AA
:103640001C1919700133A342FBD103B00CBC904686
:103650009946F0BD031C141CB9E7C046EB3C906DC5
:103660006B646F736673000002040100021000E4D3
:1036700000F80100E400E00000000000000000008D
:10368000000029785634124D542D44323145204DD6
:1036900053444641543132202020224D542D44328F
:1036A000314520426F6F746C6F6164657222003720
:1036B00034383635313139353833300000030201C2
:1036C0000400080070008000010000010002030CEB
:1036D00010600000F8B5C046F8BC08BC9E467047B4
:1036E00031010000F8B5C046F8BC08BC9E467047E2
:0436F00005010000D0
:1036F4004D542D44323145204D5344080000000000
:1037040000000000000000000000000000000000B5
:103714004146004C004100530048000F00262E0093
:10372400420049004E0000000000000000000000BC
:10373400464C41534820202042494E0000000000DE
:1037440000000000000020084E12020000C001002A
:103754000100000055070000FD0600007D08000080
:10376400AD06000000000000000003021F0000007E
:103774004D41545441495220000000000000000013
:103784000000000000000000312E30305553425339
:103794000000000000000000000000000100000024
:1037A400DC000020C4000020C8000020B00000207D
:1037B400000000006400002012010002000000402C
:1037C400D0160C0A000101020301000009022000C6
:1037D400010100C032090400000208065000070578
:1037E4008102400000070502024000004D542D44B0
:1037F400323145204D534420426F6F746C6F6164C5
:103804006572004D61747461697254656368204C1B
:103814004C43000000030000000000000000000012
:103824000000000000000000000000000000000094
:103834000000000000000000000000000000000084
:103844000000000004030904010000000800000057
:04385400401F000011
:04000003000032A91E
:00000001FF
